:100000000C942E000C944B000C944B000C94980311
:100010000C944B000C944B000C944B000C94BF03BD
:100020000C944B000C944B000C944B000C944B0024
:100030000C944B000C944B000C944B000C944B0014
:100040000C944B000C944B000C944B000C944B0004
:100050000C944B000C944B000C944B0011241FBECD
:10006000CFEFD4E0DEBFCDBF11E0A0E0B1E0ECE81F
:10007000F9E002C005900D92A831B107D9F723E04D
:10008000A8E1B1E001C01D92A934B207E1F70E94D6
:100090008C020C94C4040C9400001F93CF93DF9344
:1000A000CDB7DEB764970FB6F894DEBF0FBECDBFF5
:1000B00094E1E4E0F1E0DE01119601900D929A9551
:1000C000E1F76630710508F004C160FF02C0AFE0DF
:1000D00001C0A0EF282F30E0A901405351094A3058
:1000E000510510F49A0103C08A3008F0F2C0CB0128
:1000F00081709078992324F401978E6F9F6F0196F9
:10010000AC01019709F0C8C061507109C5C0CA01AE
:10011000880F991F880F991F4CEE50E0FA019081CB
:10012000E12FF0E0082E02C0EE0FFF1F0A94E2F765
:100130009A239E0FFA019083E1EFF0E090816B2FFC
:1001400070E0082E02C0660F771F0A94E2F79A2328
:10015000690F6083E6EFF0E09081432F50E0082EB6
:1001600002C0440F551F0A94E2F79A23490F4083B7
:10017000EBEFF0E0408130E0B90102C0660F771F7D
:100180008A95E2F7CB01A4238A0F8083A2C0623054
:10019000710509F03FC0CA01880F991F880F991F88
:1001A0004DEE50E0FA019081E12FF0E0082E02C000
:1001B000EE0FFF1F0A94E2F79A239E0FFA01908335
:1001C000E2EFF0E090816B2F70E0082E02C0660F26
:1001D000771F0A94E2F79A23690F6083E7EFF0E054
:1001E0009081432F50E0082E02C0440F551F0A94FF
:1001F000E2F73A2F3923430F4083ECEFF0E0908190
:1002000030E002C0220F331F8A95E2F7A9232A0F9C
:1002100020835FC06430710509F05BC0CA01880F9C
:10022000991F880F991F4EEE50E0FA019081E12F3F
:10023000F0E0082E02C0EE0FFF1F0A94E2F79A23A7
:100240009E0FFA019083E3EFF0E090816B2F70E056
:10025000082E02C0660F771F0A94E2F79A23690FEF
:100260006083E8EFF0E09081432F50E0082E02C059
:10027000440F551F0A94E2F79A23490F4083EDEF8C
:10028000F0E0908130E002C0220F331F8A95E2F740
:10029000A9232A0F20831DC0220F331FFE01E20F66
:1002A000F31F81819281182F1F709C013295229536
:1002B0002F7023273F702327B22FBF70392F3F7035
:1002C000292F22952F702F706115710509F41FCF0A
:1002D0005ECF64960FB6F894DEBF0FBECDBFDF9140
:1002E000CF911F910895CF92DF92EF92FF92CF931B
:1002F000DF936B017C0183E0C816D104E104F104B3
:1003000074F1D701C60181709927AA27B078BB2361
:1003100054F40197A109B1098E6F9F6FAF6FBF6F42
:100320000196A11DB11D892B8A2B8B2BD1F0C2E028
:10033000D0E008C0C701B6010E944204672B682BB9
:10034000692B89F021969E010D2E000C440B550B54
:100350002C153D054E055F056CF381E005C081E07D
:1003600003C080E001C080E0DF91CF91FF90EF906B
:10037000DF90CF9008958F929F92AF92BF92CF92CD
:10038000DF92EF92FF92CF93DF934B015C01EA0182
:1003900088E191E00E94EC03D0932701C0932601ED
:1003A000C501B40124E630E040E050E00E94420480
:1003B0000F2EFAE0CF2ED12CE12CF12CF02DA7013D
:1003C00096010E944204BE0180E3820F0E944D000C
:1003D000C0912601D09127012196D0932701C09387
:1003E0002601C501B401A70196010E944204862F8F
:1003F000BE01805D0E944D0088E191E00E941304DF
:10040000DF91CF91FF90EF90DF90CF90BF90AF90B2
:100410009F908F900895EC01C12CD12C7601C3944C
:10042000C701B6010E947301882329F0AE01C701FC
:10043000B6010E94BB018FEFC81AD80AE80AF80A71
:10044000EFCFC9EFD0E011E00E9438040A97E4F33F
:100450000E943D048881882311F01882F5CF18830B
:10046000F3CFAC0180911C0190911D01A0911E0160
:10047000B0911F01BC01CD016F5F7F4F8F4F9F4F28
:1004800060931C0170931D0180931E0190931F01C6
:100490000E94BB0108956C0180E885B981E08093DA
:1004A000EF0080E090E020E030E0D0E0C0E00F2EF0
:1004B000FFEEEF2EF12CF02D992493940EEF10E027
:1004C000AA24A394B12C009711F51F990FC02115F0
:1004D000310561F4C6010E943102F8019082F701F2
:1004E00010828A2D9B2D2A2D3B2DEDCF1F990FC0F9
:1004F0002130310561F4C6010E943102F70190827A
:10050000F80110828A2D9B2D2D2F3C2FDCCF1F9BB5
:10051000DACF8D2F9C2FD7CF60E070E08BE092E098
:100520000E94D10264E070E08BE492E00E94D1026C
:100530000E942102DC0115961C921E921497DB0189
:10054000ED91FC911197309721F48D939C93089530
:10055000F9012481358121153105D1F795838483F3
:100560000895CF93DF9300D0CDB7DEB79A83898308
:10057000809100019091010106960E948304892BCD
:1005800059F489819A81909301018093000161E07F
:1005900070E006960E94A3040F900F90DF91CF9118
:1005A0000895CF93DF9300D0CDB7DEB7AC01F894B8
:1005B0008091220190912301892B09F043C082E0B0
:1005C00092E090939A01809399018FE692E0909344
:1005D0000702809306028CED92E090937402809360
:1005E00073021092E1021092E00281E090E0909399
:1005F000230180932201E1E6F0E090E890831082ED
:100600009DBB90936C0095B980EC809380009DE039
:100610009093810026E831E0309389002093880090
:10062000109285001092840092E090936F00809366
:10063000E40087EB8093E5008FE08093E70087E09C
:100640008093E60080910201909103019A8389834F
:100650000097A1F0FC018481958190930301809320
:100660000201518340837383628315821482CF0118
:1006700006960E948304019749F501C0FFCF789444
:10068000A0910001B0910101ED91FC91119712969A
:100690008D919C9113970995F89462E071E0809197
:1006A0000001909101010E949A0280912401909191
:1006B0002501009751F0FC012481358130932501FB
:1006C000209324010E94B10201C0FFCFE981FA8189
:1006D000369689819A8187599F4F918B808B938B16
:1006E000828B64E271E089819A810E949A027894F7
:1006F0000F900F90DF91CF910895F89464E271E02C
:1007000080910001909101010E949A028091240140
:1007100090912501009759F0FC0124813581309397
:100720002501209324010E94B10278940895FFCFFF
:100730001F920F920FB60F9211242F933F934F9356
:100740005F936F937F938F939F93AF93BF93EF9339
:10075000FF93F8941F9B0E947D037894FF91EF9183
:10076000BF91AF919F918F917F916F915F914F91C9
:100770003F912F910F900FBE0F901F9018951F92D1
:100780000F920FB60F9211242F933F934F935F93C5
:100790006F937F938F939F93AF93BF93EF93FF9349
:1007A00080912001909121010196909321018093E5
:1007B00020010E947D03FF91EF91BF91AF919F9126
:1007C0008F917F916F915F914F913F912F910F90FA
:1007D0000FBE0F901F901895F894FC012081318175
:1007E000232B29F421E030E0318320831AC0BC019F
:1007F0006E5F7F4F80910001909101010E949A02EB
:100800008091240190912501009751F0FC012481F1
:10081000358130932501209324010E94B10201C04B
:10082000FFCF78940895CF93DF93F894FC01228151
:100830003381232BB1F0EC0164E271E0809100017F
:10084000909101010E949A028A819B81009741F058
:10085000FC01248135813B832A830E94B10204C0BC
:10086000FFCFFC01118210827894DF91CF9108951F
:100870008091200190912101089510922101109200
:1008800020010895052E97FB1EF400940E94590440
:1008900057FD07D00E94610407FC03D04EF40C946E
:1008A000590450954095309521953F4F4F4F5F4FDC
:1008B000089590958095709561957F4F8F4F9F4FCC
:1008C0000895A1E21A2EAA1BBB1BFD010DC0AA1F91
:1008D000BB1FEE1FFF1FA217B307E407F50720F0A9
:1008E000A21BB30BE40BF50B661F771F881F991F24
:1008F0001A9469F760957095809590959B01AC016D
:10090000BD01CF010895DC012D923D924D925D9283
:100910006D927D928D929D92AD92BD92CD92DD921F
:10092000ED92FD920D931D93CD93DD93FF91EF9189
:100930008DB78D938EB78D938FB78D93ED93FD9378
:10094000882799270994DC01CB0181309105811D0D
:100950002D903D904D905D906D907D908D909D90EF
:10096000AD90BD90CD90DD90ED90FD900D911D91DD
:10097000CD91DD91ED91FD910D90F894FEBF0FBEEC
:0C098000EDBFED91FD910994F894FFCFBC
:10098C002801950151151001111E111B500B411B13
:08099C00411F1101511F510B15
:00000001FF
