S00C00004C6162342E73726563D5
S11300000C942E000C9485050C94F1050C945D065B
S11300100C94C9060C9435070C944B000C940C0EEC
S11300200C944B000C94BA0D0C94A1070C940D087D
S11300300C9479080C94E5080C9451090C94BD09AE
S11300400C94290A0C94950A0C94010B0C946D0BD6
S11300500C94D90B0C94450C0C94B10C11241FBEB8
S1130060CFEFD4E0DEBFCDBF11E0A0E0B1E0EEE021
S1130070F3E202C005900D92A835B107D9F724E048
S1130080A8E5B1E001C01D92AB3AB207E1F70E94C6
S1130090CF030C9485110C940000CF92DF92EF9261
S11300A0FF920F931F93CF93DF93EC018E819F8177
S11300B0892BB9F481E090E09F838E83C12CD12CED
S11300C00F2EFDE4EF2EF0E0FF2EF02D8E0120E048
S11300D030E0A90169E07DE380E090E00E94C10E78
S11300E050C01E9925C0EC81FD8140E050E064E3DE
S11300F074E0808591850E94D20F40E050E060E476
S113010073E08C819D810E94D20FC12CD12C0F2EC3
S1130110FDE4EF2EF0E0FF2EF02D8E0120E030E024
S1130120A9016AE678E180E090E00E94C10E29C04E
S11301301F9925C0EC81FD8140E050E06AE674E03F
S1130140808591850E94D20F40E050E060E473E026
S11301508C819D810E94D20FC12CD12C0F2EFDE4E5
S1130160EF2EF0E0FF2EF02D8E0120E030E0A9010B
S11301706AE678E180E090E00E94C10E02C01F822E
S11301801E82DF91CF911F910F91FF90EF90DF902E
S1130190CF900895CF92DF92EF92FF920F931F9327
S11301A0CF93DF93EC011F993CC0EE81FF818681E0
S11301B09781892B09F099C0EC81FD810085118517
S11301C0C12CD12C0F2EFAE6EF2EF4E0FF2EF02DE9
S11301D020E030E0A90160E070E0CB010E94C10E94
S11301E00C811D810F2EF0E4EF2EF3E0FF2EF02D95
S11301F020E030E0A90160E070E0CB010E94C10E74
S11302000E811F810F2EFDE4EF2EF0E0FF2EF02D66
S113021020E030E0A90160E070E0CB010E94C10E53
S113022066C01E993BC0EE81FF8186819781892B30
S1130230A9F5EC81FD8100851185C12CD12C0F2EEF
S1130240F4E3EF2EF4E0FF2EF02D20E030E0A901DE
S113025060E070E0CB010E94C10E0C811D810F2E65
S1130260F0E4EF2EF3E0FF2EF02D20E030E0A901C2
S113027060E070E0CB010E94C10E0E811F810F2E41
S1130280FDE4EF2EF0E0FF2EF02D20E030E0A90198
S113029060E070E0CB010E94C10E29C01C9927C008
S11302A0EC81FD8100851185C12CD12C0F2EF9E73D
S11302B0EF2EF4E0FF2EF02D20E030E0A90160E005
S11302C070E0CB010E94C10E0C811D810F2EF0E461
S11302D0EF2EF3E0FF2EF02D20E030E0A90160E0E6
S11302E070E0CB010E94C10E02C083B1D7CFDF9171
S11302F0CF911F910F91FF90EF90DF90CF900895D1
S1130300CF92DF92EF92FF920F931F93CF93DF93DD
S1130310EC01639928C00C811D810F2EF6E0CF2ECD
S1130320D12CF02D0F2EF5E8EF2EF3E0FF2EF02D5B
S113033020E030E0A90160E070E0CB010E94C10E32
S11303400C811D81C12CD12C0F2EF0E4EF2EF3E093
S1130350FF2EF02D20E030E0A90160E070E0CB0139
S11303600E94C10E28C0629926C00C811D81689428
S1130370CC24C2F8D12C0F2EF5E8EF2EF3E0FF2E9B
S1130380F02D20E030E0A90160E070E0CB010E9494
S1130390C10E0C811D81C12CD12C0F2EF0E4EF2E47
S11303A0F3E0FF2EF02D20E030E0A90160E070E0E2
S11303B0CB010E94C10EDF91CF911F910F91FF904D
S11303C0EF90DF90CF9008951F93CF93DF93CDB735
S11303D0DEB764970FB6F894DEBF0FBECDBF94E1CD
S11303E0E4E4F1E0DE01119601900D929A95E1F7B3
S11303F06630710508F000C160FF02C0AFE001C0C3
S1130400A0EF282F30E0A901405351094A3051058B
S113041008F49A01CB0181709078992324F4019710
S11304208E6F9F6F0196AC01019709F0C8C06150AF
S11304307109C5C0CA01880F991F880F991F4CEE16
S113044050E0FA019081E12FF0E0082E02C0EE0F97
S1130450FF1F0A94E2F79A239E0FFA019083E1EFBB
S1130460F0E090816B2F70E0082E02C0660F771FBA
S11304700A94E2F79A23690F6083E6EFF0E0908133
S1130480432F50E0082E02C0440F551F0A94E2F790
S11304909A23490F4083EBEFF0E0408130E0B9014B
S11304A002C0660F771F8A95E2F7CB01A4238A0F57
S11304B08083A2C06230710509F03FC0CA01880F71
S11304C0991F880F991F4DEE50E0FA019081E12F9A
S11304D0F0E0082E02C0EE0FFF1F0A94E2F79A2301
S11304E09E0FFA019083E2EFF0E090816B2F70E0B1
S11304F0082E02C0660F771F0A94E2F79A23690F49
S11305006083E7EFF0E09081432F50E0082E02C0B3
S1130510440F551F0A94E2F73A2F3923430F4083BF
S1130520ECEFF0E0908130E002C0220F331F8A9597
S1130530E2F7A9232A0F20835FC06430710509F014
S11305405BC0CA01880F991F880F991F4EEE50E0B7
S1130550FA019081E12FF0E0082E02C0EE0FFF1F98
S11305600A94E2F79A239E0FFA019083E3EFF0E0F6
S113057090816B2F70E0082E02C0660F771F0A94DB
S1130580E2F79A23690F6083E8EFF0E09081432F4C
S113059050E0082E02C0440F551F0A94E2F79A2334
S11305A0490F4083EDEFF0E0908130E002C0220F6C
S11305B0331F8A95E2F7A9232A0F20831DC0220F37
S11305C0331FFE01E20FF31F81819281182F1F70E8
S11305D09C01329522952F7023273F702327B22F39
S11305E0BF70392F3F70292F22952F702F706115FE
S11305F0710509F41FCF5ECF64960FB6F894DEBF81
S11306000FBECDBFDF91CF911F9108958F929F921E
S1130610AF92BF92CF92DF92EF92FF92CF93DF938C
S11306204B015C01EA0124E630E040E050E00E9426
S113063003110F2EFAE0CF2ED12CE12CF12CF02D4A
S1130640A70196010E940311BE0180E3820F0E945C
S1130650E4012196C501B401A70196010E9403118A
S1130660862FBE01805D0E94E401DF91CF91FF904F
S1130670EF90DF90CF90BF90AF909F908F900895B0
S1130680CF93DF93EC01EC81FD8166817781072EA6
S1130690000C880B990B40E050E00E940603EE81A9
S11306A0FF8166817781072E000C880B990B44E04B
S11306B050E00E940603DF91CF910895E1E6F0E057
S11306C080E88083108280EC8DBB8CBBECE6F0E08C
S11306D09081906D9083EBE6F0E090819C60908334
S11306E095B1906D95B99EB19C609EB98093E400DC
S11306F087EB8093E50087E08093E6008FE08093AA
S1130700E70081E08093F9000895CF92DF92EF92A1
S1130710FF920F931F9364307105E1F421E020935D
S1130720F9001092FE00FC01248135813187208775
S1130730C12CD12C0F2EF0E4EF2EF3E0FF2EF02D80
S11307408C0120E030E0A90160E070E0CB010E9460
S1130750C10E1EC066307105D9F41092F90021E073
S11307602093FE00FC012681378131872087C12C2C
S1130770D12C0F2EF0E4EF2EF3E0FF2EF02D8C01A0
S113078020E030E0A90160E070E0CB010E94C10EDE
S11307901F910F91FF90EF90DF90CF9008950E94EA
S11307A05E0341E060E871E080E091E00E94CD10DA
S11307B042E06AEC70E080E091E00E94CD1040E0FD
S11307C050E060E473E080E191E00E94E710089556
S11307D06430710529F49EB180E189278EB90895AA
S11307E06630710521F49EB180E489278EB908959D
S11307F0CF92DF92EF92FF920F931F93CF93DF93E9
S1130800FC0126813781121613062CF5EC01448174
S1130810558168EE73E0848595850E94D20F2E8100
S11308203F81032E000C440B550B68E478EE81E005
S113083090E00E940311CA01B901C12CD12C0F2EE2
S1130840F8EFEF2EF3E0FF2EF02D8E0120E030E0E4
S1130850A9010E94C10EDF91CF911F910F91FF90CA
S1130860EF90DF90CF900895CF92DF92EF92FF92B6
S11308700F931F93FC0126813781233631051CF524
S113088040855185452BF9F421153105B9F48C01C6
S113089081E090E097838683C12CD12C0F2EF8EF52
S11308A0EF2EF3E0FF2EF02D20E030E0A90168E404
S11308B078EE81E090E00E94C10E05C02F5F3F4FAB
S11308C0FC01378326831F910F91FF90EF90DF90F7
S11308D0CF900895FC01268137811216130644F443
S11308E080859185892B21F4215031093783268312
S11308F00895CF92DF92EF92FF920F931F93CF93BD
S1130900DF93FC0180859185009759F48681978156
S1130910938782871782168281E090E0918780878F
S113092025C0019719F5EF01228533853783268386
S11309301386128611861086032E000C440B550B69
S113094068E478EE81E090E00E940311CA01B901E5
S1130950C12CD12C0F2EF8EFEF2EF3E0FF2EF02D4B
S11309608E0120E030E0A9010E94C10EDF91CF91F9
S11309701F910F91FF90EF90DF90CF900895CF9348
S1130980DF9300D000D0CDB7DEB78BE492E02BE24A
S113099033E0FC017097918380834096821793071C
S11309A0C1F710921C0310921B03E6E8F1E083EAFE
S11309B091E09183808380EC91E0968F858FADEDFB
S11309C0B1E0B3AFA2AF1D921C92FA83E983E7E8CA
S11309D0F3E0FC83EB8389819A8106960E9444119B
S11309E08B819C81E981FA81978B868B918F808F93
S11309F08FE590E1948F838F158214827D96FA831C
S1130A00E983EB81FC81E05AFF4FFC83EB8389810E
S1130A109A818A5F9140F9F6EEE1F2E01182108248
S1130A201582148213821282E1E6F0E080E880836A
S1130A301082109285001092840084E080938100DB
S1130A4081E080936F000F900F900F900F90DF91D3
S1130A50CF910895CF93DF9300D0CDB7DEB79A83BB
S1130A60898380913C0190913D0106960E94441136
S1130A70892B59F489819A8190933D0180933C019B
S1130A8061E070E006960E9464110F900F90DF9170
S1130A90CF9108950F931F93CF93DF93E09160015B
S1130AA0F0916101309761F1809140019091410191
S1130AB0009731F1C0913E01D0913F01AA81BB81E1
S1130AC0109779F0468157816085718516960D914E
S1130AD01D912D913C911997401B510B620B730B87
S1130AE07AF4FC012081318130934101209340014B
S1130AF0D183C08390933F0180933E010E942A05D5
S1130B00DF91CF911F910F9108951F920F920FB60D
S1130B100F9211242F933F934F935F936F937F937F
S1130B208F939F93AF93BF93EF93FF9320915801BB
S1130B30309159014091840050918500C901032EE0
S1130B40000CAA0BBB0BDC019927882760E070E03E
S1130B50842B952BA62BB72B80935A0190935B0182
S1130B60A0935C01B0935D01B09B1BC040918400D5
S1130B7050918500C9010196092E000CAA0BBB0BEC
S1130B80DC019927882760E070E0842B952BA62B45
S1130B90B72B80935A0190935B01A0935C01B093AF
S1130BA05D01E091FA01F091FB01309739F060E0CA
S1130BB070E0809162019091630109950E944A0559
S1130BC0FF91EF91BF91AF919F918F917F916F9121
S1130BD05F914F913F912F910F900FBE0F901F90F7
S1130BE018951F920F920FB60F9211242F933F93D3
S1130BF04F935F936F937F938F939F93AF93BF9321
S1130C00EF93FF9320915801309159014091840052
S1130C1050918500C901032E000CAA0BBB0BDC010B
S1130C209927882760E070E0842B952BA62BB72B9F
S1130C3080935A0190935B01A0935C01B0935D0192
S1130C40B09B1BC04091840050918500C90101965E
S1130C50092E000CAA0BBB0BDC019927882760E046
S1130C6070E0842B952BA62BB72B80935A0190937D
S1130C705B01A0935C01B0935D01E091FC01F091F4
S1130C80FD01309739F061E070E08091640190914A
S1130C90650109950E944A05FF91EF91BF91AF91BB
S1130CA09F918F917F916F915F914F913F912F9180
S1130CB00F900FBE0F901F9018951F920F920FB6B2
S1130CC00F9211242F933F934F935F936F937F93CE
S1130CD08F939F93AF93BF93EF93FF93209158010A
S1130CE0309159014091840050918500C901032E2F
S1130CF0000CAA0BBB0BDC019927882760E070E08D
S1130D00842B952BA62BB72B80935A0190935B01D0
S1130D10A0935C01B0935D01B09B1BC04091840023
S1130D2050918500C9010196092E000CAA0BBB0B3A
S1130D30DC019927882760E070E0842B952BA62B93
S1130D40B72B80935A0190935B01A0935C01B093FD
S1130D505D01E091FE01F091FF01309739F062E00E
S1130D6070E0809166019091670109950E944A059F
S1130D70FF91EF91BF91AF919F918F917F916F916F
S1130D805F914F913F912F910F900FBE0F901F9045
S1130D9018951F920F920FB60F9211242F933F9321
S1130DA04F935F936F937F938F939F93AF93BF936F
S1130DB0EF93FF93209158013091590140918400A1
S1130DC050918500C901032E000CAA0BBB0BDC015A
S1130DD09927882760E070E0842B952BA62BB72BEE
S1130DE080935A0190935B01A0935C01B0935D01E1
S1130DF0B09B1BC04091840050918500C9010196AD
S1130E00092E000CAA0BBB0BDC019927882760E094
S1130E1070E0842B952BA62BB72B80935A019093CB
S1130E205B01A0935C01B0935D01E0910002F0913D
S1130E300102309739F063E070E08091680190918D
S1130E40690109950E944A05FF91EF91BF91AF9105
S1130E509F918F917F916F915F914F913F912F91CE
S1130E600F900FBE0F901F9018951F920F920FB600
S1130E700F9211242F933F934F935F936F937F931C
S1130E808F939F93AF93BF93EF93FF932091580158
S1130E90309159014091840050918500C901032E7D
S1130EA0000CAA0BBB0BDC019927882760E070E0DB
S1130EB0842B952BA62BB72B80935A0190935B011F
S1130EC0A0935C01B0935D01B09B1BC04091840072
S1130ED050918500C9010196092E000CAA0BBB0B89
S1130EE0DC019927882760E070E0842B952BA62BE2
S1130EF0B72B80935A0190935B01A0935C01B0934C
S1130F005D01E0910202F0910302309739F064E050
S1130F1070E080916A0190916B0109950E944A05E5
S1130F20FF91EF91BF91AF919F918F917F916F91BD
S1130F305F914F913F912F910F900FBE0F901F9093
S1130F4018951F920F920FB60F9211242F933F936F
S1130F504F935F936F937F938F939F93AF93BF93BD
S1130F60EF93FF93209158013091590140918400EF
S1130F7050918500C901032E000CAA0BBB0BDC01A8
S1130F809927882760E070E0842B952BA62BB72B3C
S1130F9080935A0190935B01A0935C01B0935D012F
S1130FA0B09B1BC04091840050918500C9010196FB
S1130FB0092E000CAA0BBB0BDC019927882760E0E3
S1130FC070E0842B952BA62BB72B80935A0190931A
S1130FD05B01A0935C01B0935D01E0910402F09188
S1130FE00502309739F065E070E080916C019091D2
S1130FF06D0109950E944A05FF91EF91BF91AF9150
S11310009F918F917F916F915F914F913F912F911C
S11310100F900FBE0F901F9018951F920F920FB64E
S11310200F9211242F933F934F935F936F937F936A
S11310308F939F93AF93BF93EF93FF9320915801A6
S1131040309159014091840050918500C901032ECB
S1131050000CAA0BBB0BDC019927882760E070E029
S1131060842B952BA62BB72B80935A0190935B016D
S1131070A0935C01B0935D01B09B1BC040918400C0
S113108050918500C9010196092E000CAA0BBB0BD7
S1131090DC019927882760E070E0842B952BA62B30
S11310A0B72B80935A0190935B01A0935C01B0939A
S11310B05D01E0910602F0910702309739F066E095
S11310C070E080916E0190916F0109950E944A052C
S11310D0FF91EF91BF91AF919F918F917F916F910C
S11310E05F914F913F912F910F900FBE0F901F90E2
S11310F018951F920F920FB60F9211242F933F93BE
S11311004F935F936F937F938F939F93AF93BF930B
S1131110EF93FF932091580130915901409184003D
S113112050918500C901032E000CAA0BBB0BDC01F6
S11311309927882760E070E0842B952BA62BB72B8A
S113114080935A0190935B01A0935C01B0935D017D
S1131150B09B1BC04091840050918500C901019649
S1131160092E000CAA0BBB0BDC019927882760E031
S113117070E0842B952BA62BB72B80935A01909368
S11311805B01A0935C01B0935D01E0910802F091D2
S11311900902309739F067E070E080917001909116
S11311A0710109950E944A05FF91EF91BF91AF919A
S11311B09F918F917F916F915F914F913F912F916B
S11311C00F900FBE0F901F9018951F920F920FB69D
S11311D00F9211242F933F934F935F936F937F93B9
S11311E08F939F93AF93BF93EF93FF9320915801F5
S11311F0309159014091840050918500C901032E1A
S1131200000CAA0BBB0BDC019927882760E070E077
S1131210842B952BA62BB72B80935A0190935B01BB
S1131220A0935C01B0935D01B09B1BC0409184000E
S113123050918500C9010196092E000CAA0BBB0B25
S1131240DC019927882760E070E0842B952BA62B7E
S1131250B72B80935A0190935B01A0935C01B093E8
S11312605D01E0910A02F0910B02309739F068E0D9
S113127070E0809172019091730109950E944A0572
S1131280FF91EF91BF91AF919F918F917F916F915A
S11312905F914F913F912F910F900FBE0F901F9030
S11312A018951F920F920FB60F9211242F933F930C
S11312B04F935F936F937F938F939F93AF93BF935A
S11312C0EF93FF932091580130915901409184008C
S11312D050918500C901032E000CAA0BBB0BDC0145
S11312E09927882760E070E0842B952BA62BB72BD9
S11312F080935A0190935B01A0935C01B0935D01CC
S1131300B09B1BC04091840050918500C901019697
S1131310092E000CAA0BBB0BDC019927882760E07F
S113132070E0842B952BA62BB72B80935A019093B6
S11313305B01A0935C01B0935D01E0910C02F0911C
S11313400D02309739F069E070E08091740190915A
S1131350750109950E944A05FF91EF91BF91AF91E4
S11313609F918F917F916F915F914F913F912F91B9
S11313700F900FBE0F901F9018951F920F920FB6EB
S11313800F9211242F933F934F935F936F937F9307
S11313908F939F93AF93BF93EF93FF932091580143
S11313A0309159014091840050918500C901032E68
S11313B0000CAA0BBB0BDC019927882760E070E0C6
S11313C0842B952BA62BB72B80935A0190935B010A
S11313D0A0935C01B0935D01B09B1BC0409184005D
S11313E050918500C9010196092E000CAA0BBB0B74
S11313F0DC019927882760E070E0842B952BA62BCD
S1131400B72B80935A0190935B01A0935C01B09336
S11314105D01E0910E02F0910F02309739F06AE01D
S113142070E0809176019091770109950E944A05B8
S1131430FF91EF91BF91AF919F918F917F916F91A8
S11314405F914F913F912F910F900FBE0F901F907E
S113145018951F920F920FB60F9211242F933F935A
S11314604F935F936F937F938F939F93AF93BF93A8
S1131470EF93FF93209158013091590140918400DA
S113148050918500C901032E000CAA0BBB0BDC0193
S11314909927882760E070E0842B952BA62BB72B27
S11314A080935A0190935B01A0935C01B0935D011A
S11314B0B09B1BC04091840050918500C9010196E6
S11314C0092E000CAA0BBB0BDC019927882760E0CE
S11314D070E0842B952BA62BB72B80935A01909305
S11314E05B01A0935C01B0935D01E0911002F09167
S11314F01102309739F06BE070E08091780190919F
S1131500790109950E944A05FF91EF91BF91AF912E
S11315109F918F917F916F915F914F913F912F9107
S11315200F900FBE0F901F9018951F920F920FB639
S11315300F9211242F933F934F935F936F937F9355
S11315408F939F93AF93BF93EF93FF932091580191
S1131550309159014091840050918500C901032EB6
S1131560000CAA0BBB0BDC019927882760E070E014
S1131570842B952BA62BB72B80935A0190935B0158
S1131580A0935C01B0935D01B09B1BC040918400AB
S113159050918500C9010196092E000CAA0BBB0BC2
S11315A0DC019927882760E070E0842B952BA62B1B
S11315B0B72B80935A0190935B01A0935C01B09385
S11315C05D01E0911202F0911302309739F06CE062
S11315D070E080917A0190917B0109950E944A05FF
S11315E0FF91EF91BF91AF919F918F917F916F91F7
S11315F05F914F913F912F910F900FBE0F901F90CD
S113160018951F920F920FB60F9211242F933F93A8
S11316104F935F936F937F938F939F93AF93BF93F6
S1131620EF93FF9320915801309159014091840028
S113163050918500C901032E000CAA0BBB0BDC01E1
S11316409927882760E070E0842B952BA62BB72B75
S113165080935A0190935B01A0935C01B0935D0168
S1131660B09B1BC04091840050918500C901019634
S1131670092E000CAA0BBB0BDC019927882760E01C
S113168070E0842B952BA62BB72B80935A01909353
S11316905B01A0935C01B0935D01E0911402F091B1
S11316A01502309739F06DE070E080917C019091E3
S11316B07D0109950E944A05FF91EF91BF91AF9179
S11316C09F918F917F916F915F914F913F912F9156
S11316D00F900FBE0F901F9018951F920F920FB688
S11316E00F9211242F933F934F935F936F937F93A4
S11316F08F939F93AF93BF93EF93FF9320915801E0
S1131700309159014091840050918500C901032E04
S1131710000CAA0BBB0BDC019927882760E070E062
S1131720842B952BA62BB72B80935A0190935B01A6
S1131730A0935C01B0935D01B09B1BC040918400F9
S113174050918500C9010196092E000CAA0BBB0B10
S1131750DC019927882760E070E0842B952BA62B69
S1131760B72B80935A0190935B01A0935C01B093D3
S11317705D01E0911602F0911702309739F06EE0A6
S113178070E080917E0190917F0109950E944A0545
S1131790FF91EF91BF91AF919F918F917F916F9145
S11317A05F914F913F912F910F900FBE0F901F901B
S11317B018951F920F920FB60F9211242F933F93F7
S11317C04F935F936F937F938F939F93AF93BF9345
S11317D0EF93FF9320915801309159014091840077
S11317E050918500C901032E000CAA0BBB0BDC0130
S11317F09927882760E070E0842B952BA62BB72BC4
S113180080935A0190935B01A0935C01B0935D01B6
S1131810B09B1BC04091840050918500C901019682
S1131820092E000CAA0BBB0BDC019927882760E06A
S113183070E0842B952BA62BB72B80935A019093A1
S11318405B01A0935C01B0935D01E0911802F091FB
S11318501902309739F06FE070E080918001909127
S1131860810109950E944A05FF91EF91BF91AF91C3
S11318709F918F917F916F915F914F913F912F91A4
S11318800F900FBE0F901F9018951F920F920FB6D6
S11318900F9211242F933F934F935F936F937F93F2
S11318A08F939F93AF93BF93EF93FF93209158012E
S11318B0309159014091840050918500C901032E53
S11318C0000CAA0BBB0BDC019927882760E070E0B1
S11318D0842B952BA62BB72B80935A0190935B01F5
S11318E0A0935C01B0935D01B09B1BC04091840048
S11318F050918500C9010196092E000CAA0BBB0B5F
S1131900DC019927882760E070E0842B952BA62BB7
S1131910B72B80935A0190935B01A0935C01B09321
S11319205D01E0911A02F0911B02309739F060E1F9
S113193070E0809182019091830109950E944A058B
S1131940FF91EF91BF91AF919F918F917F916F9193
S11319505F914F913F912F910F900FBE0F901F9069
S113196018951F920F920FB60F9211242F933F9345
S11319704F935F936F937F938F939F93AF93BF9393
S1131980EF93FF93209158013091590140918400C5
S113199050918500C901032E000CAA0BBB0BDC017E
S11319A09927882760E070E0842B952BA62BB72B12
S11319B080935A0190935B01A0935C01B0935D0105
S11319C0B09B1BC04091840050918500C9010196D1
S11319D0092E000CAA0BBB0BDC019927882760E0B9
S11319E070E0842B952BA62BB72B80935A019093F0
S11319F05B01A0935C01B0935D01E0911C02F09146
S1131A001D02309739F061E170E08091840190917A
S1131A10850109950E944A05FF91EF91BF91AF910D
S1131A209F918F917F916F915F914F913F912F91F2
S1131A300F900FBE0F901F901895EF92FF920F9387
S1131A401F93CF93DF937B01EB01A881B98110979A
S1131A5061F1FC01068117812085318516964D912F
S1131A605D916D917C911997041715072607370727
S1131A7014F41BC0DF01ED91FC911197309749F0EC
S1131A804681578160857185041715072607370736
S1131A908CF7EC01F983E883109721F4F701918323
S1131AA0808307C08D939C9304C0EC01B983A88301
S1131AB0F5CFDF91CF911F910F91FF90EF90089593
S1131AC0EF92FF920F931F93CF93DF937B01EB0170
S1131AD0A881B981109761F1FC01028113812481ED
S1131AE0358112964D915D916D917C9115970417F6
S1131AF015072607370714F41BC0DF01ED91FC918D
S1131B001197309749F0428153816481758104179C
S1131B101507260737078CF7EC01F983E88310973C
S1131B2021F4F7019183808307C08D939C9304C0B3
S1131B30EC01B983A883F5CFDF91CF911F910F9169
S1131B40FF90EF900895DC01ED91FC91119730978F
S1131B5059F48FEF8093EC008093ED008093EE00B6
S1131B6081E083BF8895FDCF208131812D933C9303
S1131B70CF0108951F920F920FB60F9211242F9345
S1131B803F934F935F936F937F938F939F93EF93C1
S1131B90FF938091580190915901019690935901B6
S1131BA080935801E0915E01F0915F01309701F15B
S1131BB0428153816481758186179707C9F4CA01EC
S1131BC02091840030918500421B530B4130510514
S1131BD029F4809184009091850001969093890066
S1131BE080938800EFE6F0E080818260808305C006
S1131BF0EFE6F0E080818D7F8083FF91EF919F91EC
S1131C008F917F916F915F914F913F912F910F90A1
S1131C100FBE0F901F9018951F920F920FB60F9240
S1131C201124CF92DF92EF92FF922F933F934F9321
S1131C305F936F937F938F939F93AF93BF93EF9330
S1131C40FF93C0905801D0905901209184003091A5
S1131C508500B0990FC00D2C000CEE08FF08D601CA
S1131C60992788276901E12CF12CC82AD92AEA2A64
S1131C70FB2A15C020918400309185008FEFC81A8B
S1131C80D80A0D2C000CEE08FF08D60199278827E6
S1131C906901E12CF12CC82AD92AEA2AFB2AE0910D
S1131CA05E01F0915F01309709F442C08281938113
S1131CB0A481B5818C199D09AE09BF0918161906AE
S1131CC01A061B06ECF18EE591E00E94A30D60E676
S1131CD071E00E941D0DE0915E01F0915F0130976B
S1131CE039F182819381A481B5818C199D09AE0952
S1131CF0BF09181619061A061B062CF721C09C01E9
S1131D004091840050918500841B950B019731F418
S1131D1020918400309185002F5F3F4F30938900DC
S1131D2020938800EFE6F0E080818260808305C024
S1131D30EFE6F0E080818D7F80830E944A050CC02D
S1131D4082819381A481B5812091580130915901F8
S1131D502A173B0769F7D3CFFF91EF91BF91AF915A
S1131D609F918F917F916F915F914F913F912F91AF
S1131D70FF90EF90DF90CF900F900FBE0F901F90C9
S1131D8018953F924F925F926F927F928F929F929B
S1131D90AF92BF92CF92DF92EF92FF920F931F9375
S1131DA0CF93DF932B013C0149015A018FB780780F
S1131DB0382EF89482E491E00E94A30DEC011B8775
S1131DC00A87FD86EC86DF86CE86332061F0E091BB
S1131DD03C01F0913D010280F381E02D82819381E9
S1131DE0A481B58108C080915A0190915B01A091B2
S1131DF05C01B0915D01480E591E6A1E7B1E4A8229
S1131E005B826C827D82181419041A041B0444F04A
S1131E100F2E88248A94982CA82CFFE7BF2EF02D2F
S1131E20840C951CA61CB71C8E829F82A886B9863A
S1131E3080915801909159014091840050918500FE
S1131E40B0990EC0092E000CAA0BBB0BDC0199271C
S1131E50882760E070E0842B952BA62BB72B13C04A
S1131E6020918400309185000196092E000CAA0B64
S1131E70BB0BDC0199278827A90160E070E0842B63
S1131E80952BA62BB72B481A590A6A0A7B0A1414F5
S1131E90150416041704ACF56EE571E0CE010E943A
S1131EA0600DE0915E01F0915F01309721F1828134
S1131EB09381A481B58120915801309159012A1749
S1131EC03B07C9F49C014091840050918500841B18
S1131ED0950B019731F420918400309185002F5F98
S1131EE03F4F3093890020938800EFE6F0E0808133
S1131EF08260808341C0EFE6F0E080818D7F808343
S1131F003BC060E671E0CE010E941D0D3320B9F1A3
S1131F108091400190914101009781F1E0913E014F
S1131F20F0913F01209160013091610102811381A0
S1131F30D90116964D915D916D917C911997D801B7
S1131F4016960D911D912D913C911997401B510BA3
S1131F50620B730B9AF4DC012D913C911197309331
S1131F60410120934001ED93FC9390933F018093B2
S1131F703E010E942A0502C0332009F07894CE0164
S1131F80DF91CF911F910F91FF90EF90DF90CF9051
S1131F90BF90AF909F908F907F906F905F904F9085
S1131FA03F900895CF92DF92EF92FF920F931F9389
S1131FB0CF93DF93EC017B016A011FB71078F8948B
S1131FC0A881B981109761F11496ED91FC91159750
S1131FD0309741F0A081B1811496ED91FC91159751
S1131FE03097C1F720913C0130913D012A173B07FE
S1131FF021F0112309F43DC007C0112309F43CC0AA
S113200078948FEF9FEF52C08A819B810097D1F122
S1132010FC011582148236C0789480E090E046C0BA
S113202080913C0190913D0199838883112329F08B
S11320308A819B81019709F07894B601CE01F7015A
S11320400995F82E092F8FB7F894198218828A817E
S11320509B818230910538F01B821A82FC01158223
S113206014820E942A05112351F078948F2D902F09
S11320701DC08FEF9FEF1AC08FEF9FEF17C08F2DFA
S1132080902F14C03B832A83F901D583C483CD01E7
S11320900E942A05E0913C01F0913D0182819381E7
S11320A0892B09F4B9CFF983E883C2CFDF91CF91AB
S11320B01F910F91FF90EF90DF90CF9008950091C2
S11320C03C0110913D0180E691E00E94A30DEC01DA
S11320D0D80113969C938E93129778944E855F85BE
S11320E06C857D858A859B850E94D20F8FB7F89475
S11320F0809142019091430199838883D093430155
S1132100C0934201E0913E01F0913F0100811181B1
S1132110E8012A813B81A0916001B091610110978F
S1132120C1F02115310559F216968D919D910D90AE
S1132130BC91A02DE9014E815F8168857985841B5E
S1132140950BA60BB70B181619061A061B060CF0EE
S1132150B6CF10933F0100933E01809140019091CE
S1132160410191838083F0934101E0934001A09168
S11321703E01B0913F011496ED91FC911597309773
S113218041F0A081B1811496ED91FC91159730979F
S1132190C1F7CD010E942A0592CF4231B8F42FB77E
S11321A0F89450E0440F551FFA01EE59FE4F918305
S11321B08083FA01E650FE4F7183608341E050E072
S11321C0FC015383428322230CF4789408958C01F8
S11321D07B016A018FB7F8940E94BF047894E114DC
S11321E0F10441F020E030E0A90160E070E0CB01AF
S11321F00E94C10E8FB7F8940E944A05789481E03A
S113220083BF8895FDCF052E97FB1EF400940E9492
S11322101A1157FD07D00E94221107FC03D04EF477
S11322200C941A1150954095309521953F4F4F4F7E
S11322305F4F089590958095709561957F4F8F4F6E
S11322409F4F0895A1E21A2EAA1BBB1BFD010DC0CE
S1132250AA1FBB1FEE1FFF1FA217B307E407F50752
S113226020F0A21BB30BE40BF50B661F771F881F2E
S1132270991F1A9469F760957095809590959B01C4
S1132280AC01BD01CF010895DC012D923D924D9228
S11322905D926D927D928D929D92AD92BD92CD9202
S11322A0DD92ED92FD920D931D93CD93DD93FF91FD
S11322B0EF918DB78D938EB78D938FB78D93ED93EB
S11322C0FD93882799270994DC01CB01813091057E
S11322D0811D2D903D904D905D906D907D908D90E1
S11322E09D90AD90BD90CD90DD90ED90FD900D91C1
S11322F01D91CD91DD91ED91FD910D90F894FEBF6E
S11123000FBEEDBFED91FD910994F894FFCF4F
S113230E0000000010010801000000001001000090
S113231E0000000028011A01280100000000060038
S113232E0000000000003601000000000400000060
S113233E0000000036010000000001001E021E0213
S113234E86013B0251151001111E111B500B411B2E
S10B235E411F1101511F510B35
S9030000FC
