S00E00004C6162335F322E7372656343
S11300000C942E000C944B000C944B000C94BE03E7
S11300100C944B000C944B000C944B000C94FB037D
S11300200C944B000C944B000C944B000C944B0020
S11300300C944B000C944B000C944B000C944B0010
S11300400C944B000C944B000C944B000C944B0000
S11300500C944B000C944B000C944B0011241FBEC9
S1130060CFEFD4E0DEBFCDBF11E0A0E0B1E0EEE41D
S1130070F9E002C005900D92A831B107D9F723E049
S1130080A8E1B1E001C01D92AB34B207E1F70E94D0
S11300904A020C94A5040C940000C9EFD0E011E0CE
S11300A080E291E00E9457038881882311F018822E
S11300B0F7CF1883F5CF1F93CF93DF93CDB7DEB778
S11300C064970FB6F894DEBF0FBECDBF94E1E4E0B1
S11300D0F1E0DE01119601900D929A95E1F76630F8
S11300E0710508F004C160FF02C0AFE001C0A0EFD9
S11300F0282F30E0A901405351094A30510510F42A
S11301009A0103C08A3008F0F2C0CB018170907864
S1130110992324F401978E6F9F6F0196AC01019788
S113012009F0C8C061507109C5C0CA01880F991F80
S1130130880F991F4CEE50E0FA019081E12FF0E016
S1130140082E02C0EE0FFF1F0A94E2F79A239E0FB7
S1130150FA019083E1EFF0E090816B2F70E0082EBC
S113016002C0660F771F0A94E2F79A23690F60832F
S1130170E6EFF0E09081432F50E0082E02C0440FD8
S1130180551F0A94E2F79A23490F4083EBEFF0E0FE
S1130190408130E0B90102C0660F771F8A95E2F70B
S11301A0CB01A4238A0F8083A2C06230710509F0B9
S11301B03FC0CA01880F991F880F991F4DEE50E068
S11301C0FA019081E12FF0E0082E02C0EE0FFF1F2C
S11301D00A94E2F79A239E0FFA019083E2EFF0E08B
S11301E090816B2F70E0082E02C0660F771F0A946F
S11301F0E2F79A23690F6083E7EFF0E09081432FE1
S113020050E0082E02C0440F551F0A94E2F73A2F1B
S11302103923430F4083ECEFF0E0908130E002C0DB
S1130220220F331F8A95E2F7A9232A0F20835FC088
S11302306430710509F05BC0CA01880F991F880FEB
S1130240991F4EEE50E0FA019081E12FF0E0082E64
S113025002C0EE0FFF1F0A94E2F79A239E0FFA01E1
S11302609083E3EFF0E090816B2F70E0082E02C0E2
S1130270660F771F0A94E2F79A23690F6083E8EF09
S1130280F0E09081432F50E0082E02C0440F551F28
S11302900A94E2F79A23490F4083EDEFF0E090814E
S11302A030E002C0220F331F8A95E2F7A9232A0FF8
S11302B020831DC0220F331FFE01E20FF31F818133
S11302C09281182F1F709C01329522952F7023273D
S11302D03F702327B22FBF70392F3F70292F2295EB
S11302E02F702F706115710509F41FCF5ECF6496CE
S11302F00FB6F894DEBF0FBECDBFDF91CF911F9133
S11303000895CF92DF92EF92FF92CF93DF936B0128
S11303107C0183E0C816D104E104F10474F1D7012F
S1130320C60181709927AA27B078BB2354F401979A
S1130330A109B1098E6F9F6FAF6FBF6F0196A11DA9
S1130340B11D892B8A2B8B2BD1F0C2E0D0E008C0E1
S1130350C701B6010E942304672B682B692B89F01F
S113036021969E010D2E000C440B550B2C153D05BA
S11303704E055F056CF381E005C081E003C080E0B9
S113038001C080E0DF91CF91FF90EF90DF90CF909C
S113039008958F929F92AF92BF92CF92DF92EF9285
S11303A0FF92CF93DF934B015C01EA015093290143
S11303B04093280124E630E040E050E00E9423040A
S11303C00F2EFAE0CF2ED12CE12CF12CF02DA70129
S11303D096010E942304BE0180E3820F0E945B0009
S11303E0C0912801D09129012196D0932901C0936D
S11303F02801C501B401A70196010E942304862F98
S1130400BE01805D0E945B00DF91CF91FF90EF9071
S1130410DF90CF90BF90AF909F908F900895EC01A4
S11304208CE191E00E9457036091180170911901C9
S113043080911A0190911B01AE010E94C901F0CF75
S1130440EC01C12CD12C7601C394C701B6010E94E2
S11304508101882329F0AE01C701B6010E94C901B8
S11304608FEFC81AD80AE80AF80AEFCF80EC809315
S113047080008DE08093810082E49FE09093890066
S113048080938800109285001092840082E080930B
S11304906F0008950E94360260E070E08DE490E001
S11304A00E947C0264E070E08FE092E00E947C0293
S11304B080E090E00E942002CF93DF9300D0CDB77C
S11304C0DEB79A8389838091000190910101069699
S11304D00E946404892B59F489819A8190930101C3
S11304E08093000161E070E006960E9484040F90FE
S11304F00F90DF91CF910895CF93DF9300D0CDB7C4
S1130500DEB7AC01F8948091240190912501892BE8
S113051089F584E092E090939C0180939B0181E7AC
S113052092E090930902809308028EED92E09093FA
S11305307602809375021092E3021092E20281E047
S113054090E09093250180932401E1E6F0E090E8A7
S1130550908310829DBB90936C0095B980EC80933E
S1130560E40087EB8093E5008FE08093E70087E069
S11305708093E60080910201909103019A8389831C
S11305800097A1F0FC0184819581909303018093ED
S11305900201518340837383628315821482CF01E5
S11305A006960E9464040197C1F501C0FFCF7894B8
S11305B0A0910001B0910101ED91FC911197129667
S11305C08D919C9113970995F894E0910001F09115
S11305D00101158214828091020190910301009718
S11305E029F4F0930301E093020106C09583848308
S11305F0F0930301E0930201809126019091270179
S1130600009751F0FC012481358130932701209318
S113061026010E945C0201C0FFCFE981FA8136966F
S113062089819A8187599F4F918B808B938B828B81
S1130630E981FA8115821482809126019091270123
S1130640009729F4F0932701E093260108C0E9817B
S1130650FA8195838483F0932701E09326017894AB
S11306600F900F90DF91CF910895F8948091260117
S1130670909127010097C9F0FC0124813581E09114
S11306800001F0910101158214822115310529F42C
S1130690F0932701E093260106C035832483F09369
S11306A02701E09326010E945C0278940895FC01DE
S11306B0F89480819181892B29F481E090E09183E1
S11306C0808326C0A0910001B091010115961C926F
S11306D01E92149782819381009719F4B383A283A5
S11306E006C015969C938E931497B383A28380912E
S11306F0260190912701009751F0FC012481358156
S113070030932701209326010E945C0201C0FFCF91
S113071078940895FC01F89482819381892B51F196
S1130720A0910001B091010115961C921E9214979C
S11307308091260190912701009729F4B093270115
S1130740A093260108C015969C938E931497B0939A
S11307502701A093260182819381009751F0DC0147
S113076014962D913C911597338322830E945C0249
S113077003C0FFCF11821082789408951F920F92C4
S11307800FB60F9211242F933F934F935F936F9360
S11307907F938F939F93AF93BF93EF93FF931F998F
S11307A019C08091180190911901A0911A01B0917A
S11307B01B010196A11DB11D80931801909319018D
S11307C0A0931A01B0931B018CE191E00E948A036B
S11307D00E943503FF91EF91BF91AF919F918F914B
S11307E07F916F915F914F913F912F910F900FBE29
S11307F00F901F9018951F920F920FB60F9211240D
S11308002F933F934F935F936F937F938F939F9314
S1130810AF93BF93EF93FF9380E291E00E948A032A
S11308200E943503FF91EF91BF91AF919F918F91FA
S11308307F916F915F914F913F912F910F900FBED8
S11308400F901F901895052E97FB1EF400940E949C
S11308503A0457FD07D00E94420407FC03D04EF42B
S11308600C943A0450954095309521953F4F4F4F45
S11308705F4F089590958095709561957F4F8F4F48
S11308809F4F0895A1E21A2EAA1BBB1BFD010DC0A8
S1130890AA1FBB1FEE1FFF1FA217B307E407F5072C
S11308A020F0A21BB30BE40BF50B661F771F881F08
S11308B0991F1A9469F760957095809590959B019E
S11308C0AC01BD01CF010895DC012D923D924D9202
S11308D05D926D927D928D929D92AD92BD92CD92DC
S11308E0DD92ED92FD920D931D93CD93DD93FF91D7
S11308F0EF918DB78D938EB78D938FB78D93ED93C5
S1130900FD93882799270994DC01CB018130910557
S1130910811D2D903D904D905D906D907D908D90BA
S11309209D90AD90BD90CD90DD90ED90FD900D919A
S11309301D91CD91DD91ED91FD910D90F894FEBF47
S11109400FBEEDBFED91FD910994F894FFCF29
S113094E2A01970151151001111E111B500B411B49
S10B095E411F1101511F510B4F
S9030000FC
