S00E00004C6162355F322E7372656341
S11300000C942E000C94A9040C9415050C948105F1
S11300100C94ED050C9459060C944B000C94300D83
S11300200C944B000C94DE0C0C94C5060C94310714
S11300300C949D070C9409080C9475080C94E10821
S11300400C944D090C94B9090C94250A0C94910A4A
S11300500C94FD0A0C94690B0C94D50B11241FBE4F
S1130060CFEFD4E0DEBFCDBF11E0A0E0B1E0E6E524
S1130070F1E202C005900D92A232B107D9F724E053
S1130080A2E2B1E001C01D92A338B207E1F70E94D9
S1130090D1030C94A9100C940000CF92DF92EF923C
S11300A0FF920F931F93FC01228533852150310960
S11300B033872287C12CD12C0F2EFDEAEF2EF3E0DB
S11300C0FF2EF02D8C0120E030E0A90160E070E00B
S11300D0CB010E94E50D1F910F91FF90EF90DF90EF
S11300E0CF900895CF92DF92EF92FF920F931F93D8
S11300F0FC0184819581009709F054C08681978121
S1130100892B91F5158614860F2EFAE0CF2ED12C6B
S1130110F02D0F2EFCEDEF2EF0E0FF2EF02D8F01D1
S113012020E030E0A90160E070E0CB010E94E50D21
S11301303CC086819781892BC1F5158614860F2EC4
S1130140F9E0CF2ED12CF02D0F2EFCEDEF2EF0E0A8
S1130150FF2EF02D8F0120E030E0A90160E070E077
S1130160CB010E94E50D21C08681978118161906DE
S1130170E4F481E090E0958784870F2EF6E0CF2E9B
S1130180D12CF02D0F2EFCEDEF2EF0E0FF2EF02DF4
S11301908F0120E030E0A90160E070E0CB010E9413
S11301A0E50D03C01816190624F21F910F91FF9054
S11301B0EF90DF90CF900895CF92DF92EF92FF926D
S11301C00F931F93CF93C62FC12CD12C0F2EFDEA72
S11301D0EF2EF3E0FF2EF02D8C0120E030E0A9019A
S11301E060E070E0CB010E94E50DC093C600CF91A2
S11301F01F910F91FF90EF90DF90CF900895BF92E1
S1130200CF92DF92EF92FF920F931F93CF93DF93DE
S1130210EC01B62EC12CD12C0F2EFDEAEF2EF3E00B
S1130220FF2EF02D8C0120E030E0A90160E070E0A9
S1130230CB010E94E50DB0FE06C08C819D81019624
S11302409D838C836BC0B1FE30C08C819D810197EE
S11302509D838C838A859B8501969B878A87888565
S11302609985019699878887C12CD12C0F2EFDEA98
S1130270EF2EF3E0FF2EF02D8E0120E030E0A901F7
S113028060E070E0CB010E94E50D0F2EFDE4EF2E3F
S1130290F0E0FF2EF02D20E030E0A9016AE572E6DF
S11302A082E090E00E94E50D39C0B2FE06C08E8166
S11302B09F8101969F838E8331C0B3FE2FC08E81B0
S11302C09F8101979F838E838A859B8501969B8757
S11302D08A8788859985019699878887C12CD12C2E
S11302E00F2EFDEAEF2EF3E0FF2EF02D8E0120E01D
S11302F030E0A90160E070E0CB010E94E50D0F2E13
S1130300FDE4EF2EF0E0FF2EF02D20E030E0A90117
S11303106AE572E682E090E00E94E50D88859985A1
S113032006970CF451C08C819D81892B09F44CC033
S11303308E819F81892B09F447C00F2EFAE0CF2EBE
S1130340D12CF02D0F2EFCEDEF2EF0E0FF2EF02D32
S11303508E0120E030E0A90160E070E0CB010E9452
S1130360E50D198618868C859D858130910589F463
S11303701D861C860F2EF9E0CF2ED12CF02D20E007
S113038030E0A9016AE572E682E090E00E94E50DA2
S11303901BC0892BC9F481E090E09D878C870F2EC8
S11303A0F6E0CF2ED12CF02D0F2EFCEDEF2EF0E049
S11303B0FF2EF02D8E0120E030E0A9016AE572E6FF
S11303C082E090E00E94E50DC12CD12C0F2EF2E7C3
S11303D0EF2EF0E0FF2EF02D8E0120E030E0A90199
S11303E060E070E0CB010E94E50DDF91CF911F9199
S11303F00F91FF90EF90DF90CF90BF900895CF9230
S1130400DF92EF92FF920F931F93C090C600D12CFE
S1130410FC01048115810F2EFFEFEF2EF0E0FF2E7B
S1130420F02D20E030E0A90160E070E0CB010E94F3
S1130430E50D1F910F91FF90EF90DF90CF900895FD
S11304401F93CF93DF93CDB7DEB764970FB6F894BD
S1130450DEBF0FBECDBF94E1EEE0F1E0DE01119608
S113046001900D929A95E1F76630710508F000C18C
S113047060FF02C0AFE001C0A0EF282F30E0A90167
S1130480405351094A30510508F49A01CB01817057
S11304909078992324F401978E6F9F6F0196AC0195
S11304A0019709F0C8C061507109C5C0CA01880F1D
S11304B0991F880F991F4CEE50E0FA019081E12FAB
S11304C0F0E0082E02C0EE0FFF1F0A94E2F79A2311
S11304D09E0FFA019083E1EFF0E090816B2F70E0C2
S11304E0082E02C0660F771F0A94E2F79A23690F59
S11304F06083E6EFF0E09081432F50E0082E02C0C5
S1130500440F551F0A94E2F79A23490F4083EBEFF7
S1130510F0E0408130E0B90102C0660F771F8A9590
S1130520E2F7CB01A4238A0F8083A2C06230710555
S113053009F03FC0CA01880F991F880F991F4DEE1B
S113054050E0FA019081E12FF0E0082E02C0EE0F96
S1130550FF1F0A94E2F79A239E0FFA019083E2EFB9
S1130560F0E090816B2F70E0082E02C0660F771FB9
S11305700A94E2F79A23690F6083E7EFF0E0908131
S1130580432F50E0082E02C0440F551F0A94E2F78F
S11305903A2F3923430F4083ECEFF0E0908130E0B1
S11305A002C0220F331F8A95E2F7A9232A0F208362
S11305B05FC06430710509F05BC0CA01880F991FE0
S11305C0880F991F4EEE50E0FA019081E12FF0E080
S11305D0082E02C0EE0FFF1F0A94E2F79A239E0F23
S11305E0FA019083E3EFF0E090816B2F70E0082E26
S11305F002C0660F771F0A94E2F79A23690F60839B
S1130600E8EFF0E09081432F50E0082E02C0440F41
S1130610551F0A94E2F79A23490F4083EDEFF0E067
S1130620908130E002C0220F331F8A95E2F7A9239C
S11306302A0F20831DC0220F331FFE01E20FF31F78
S113064081819281182F1F709C01329522952F7001
S113065023273F702327B22FBF70392F3F70292FD4
S113066022952F702F706115710509F41FCF5ECF8D
S113067064960FB6F894DEBF0FBECDBFDF91CF9165
S11306801F9108958F929F92AF92BF92CF92DF9263
S1130690EF92FF92CF93DF934B015C01EA0124E6D2
S11306A030E040E050E00E9427100F2EFAE0CF2EF9
S11306B0D12CE12CF12CF02DA70196010E942710DA
S11306C0BE0180E3820F0E9420022196C501B4017D
S11306D0A70196010E942710862FBE01805D0E940B
S11306E02002DF91CF91FF90EF90DF90CF90BF90E9
S11306F0AF909F908F900895E1E6F0E080E88083CA
S1130700108280EC8DBB8CBBECE6F0E09081906DA8
S11307109083EBE6F0E090819C60908395B1906DBE
S113072095B99EB19C609EB98093E40087EB809359
S1130730E50087E08093E6008FE08093E700109265
S113074064001092C50083E38093C40088E9809319
S1130750C1008EE08093C2000895CF93DF93EC0133
S11307606C817D81072E000C880B990B40E050E0D2
S11307700E9442036A857B85072E000C880B990B27
S113078042E050E00E9442036E817F81072E000CFC
S1130790880B990B44E050E00E944203DF91CF9113
S11307A008950E947C0348E06FEF71E080E091E0DF
S11307B00E94F10F40E050E06DEA73E082E291E0C4
S11307C00E940B100895CF93DF9300D000D0CDB7D3
S11307D0DEB783E292E023E033E0FC01709791837B
S11307E08083409682179307C1F71092F402109207
S11307F0F302EEE5F1E08BE791E09183808388E9F1
S113080091E0968F858FA5EBB1E0B3AFA2AF1D92B7
S11308101C92FA83E983EFE5F3E0FC83EB8389819F
S11308209A8106960E9468108B819C81E981FA81E5
S1130830978B868B918F808F83E89FE0948F838F33
S1130840158214827D96FA83E983EB81FC81E05A58
S1130850FF4FFC83EB8389819A81825D9140F9F695
S1130860E6EFF1E011821082158214821382128263
S1130870E1E6F0E080E88083108210928500109217
S1130880840084E08093810081E080936F000F9066
S11308900F900F900F90DF91CF910895CF93DF9336
S11308A000D0CDB7DEB79A838983809106019091F9
S11308B0070106960E946810892B59F489819A8150
S11308C0909307018093060161E070E006960E9410
S11308D088100F900F90DF91CF9108950F931F937D
S11308E0CF93DF93E0913801F0913901309761F1B2
S11308F080910A0190910B01009731F1C091080198
S1130900D0910901AA81BB81109779F04681578162
S11309106085718516960D911D912D913C911997C5
S1130920401B510B620B730B7AF4FC012081318163
S113093030930B0120930A01D183C0839093090162
S1130940809308010E944E04DF91CF911F910F9173
S113095008951F920F920FB60F9211242F933F9375
S11309604F935F936F937F938F939F93AF93BF93B3
S1130970EF93FF9320913001309131014091840035
S113098050918500C901032E000CAA0BBB0BDC019E
S11309909927882760E070E0842B952BA62BB72B32
S11309A08093320190933301A0933401B0933501C5
S11309B0B09B1BC04091840050918500C9010196F1
S11309C0092E000CAA0BBB0BDC019927882760E0D9
S11309D070E0842B952BA62BB72B80933201909338
S11309E03301A0933401B0933501E091D201F09129
S11309F0D301309739F060E070E080913A01909132
S1130A003B0109950E946E04FF91EF91BF91AF9154
S1130A109F918F917F916F915F914F913F912F9112
S1130A200F900FBE0F901F9018951F920F920FB644
S1130A300F9211242F933F934F935F936F937F9360
S1130A408F939F93AF93BF93EF93FF9320913001C4
S1130A50309131014091840050918500C901032EE9
S1130A60000CAA0BBB0BDC019927882760E070E01F
S1130A70842B952BA62BB72B8093320190933301B3
S1130A80A0933401B0933501B09B1BC04091840006
S1130A9050918500C9010196092E000CAA0BBB0BCD
S1130AA0DC019927882760E070E0842B952BA62B26
S1130AB0B72B8093320190933301A0933401B09308
S1130AC03501E091D401F091D501309739F061E01E
S1130AD070E080913C0190913D0109950E946E0463
S1130AE0FF91EF91BF91AF919F918F917F916F9102
S1130AF05F914F913F912F910F900FBE0F901F90D8
S1130B0018951F920F920FB60F9211242F933F93B3
S1130B104F935F936F937F938F939F93AF93BF9301
S1130B20EF93FF9320913001309131014091840083
S1130B3050918500C901032E000CAA0BBB0BDC01EC
S1130B409927882760E070E0842B952BA62BB72B80
S1130B508093320190933301A0933401B093350113
S1130B60B09B1BC04091840050918500C90101963F
S1130B70092E000CAA0BBB0BDC019927882760E027
S1130B8070E0842B952BA62BB72B80933201909386
S1130B903301A0933401B0933501E091D601F09173
S1130BA0D701309739F062E070E080913E01909176
S1130BB03F0109950E946E04FF91EF91BF91AF919F
S1130BC09F918F917F916F915F914F913F912F9161
S1130BD00F900FBE0F901F9018951F920F920FB693
S1130BE00F9211242F933F934F935F936F937F93AF
S1130BF08F939F93AF93BF93EF93FF932091300113
S1130C00309131014091840050918500C901032E37
S1130C10000CAA0BBB0BDC019927882760E070E06D
S1130C20842B952BA62BB72B809332019093330101
S1130C30A0933401B0933501B09B1BC04091840054
S1130C4050918500C9010196092E000CAA0BBB0B1B
S1130C50DC019927882760E070E0842B952BA62B74
S1130C60B72B8093320190933301A0933401B09356
S1130C703501E091D801F091D901309739F063E062
S1130C8070E0809140019091410109950E946E04A9
S1130C90FF91EF91BF91AF919F918F917F916F9150
S1130CA05F914F913F912F910F900FBE0F901F9026
S1130CB018951F920F920FB60F9211242F933F9302
S1130CC04F935F936F937F938F939F93AF93BF9350
S1130CD0EF93FF93209130013091310140918400D2
S1130CE050918500C901032E000CAA0BBB0BDC013B
S1130CF09927882760E070E0842B952BA62BB72BCF
S1130D008093320190933301A0933401B093350161
S1130D10B09B1BC04091840050918500C90101968D
S1130D20092E000CAA0BBB0BDC019927882760E075
S1130D3070E0842B952BA62BB72B809332019093D4
S1130D403301A0933401B0933501E091DA01F091BD
S1130D50DB01309739F064E070E0809142019091BA
S1130D60430109950E946E04FF91EF91BF91AF91E9
S1130D709F918F917F916F915F914F913F912F91AF
S1130D800F900FBE0F901F9018951F920F920FB6E1
S1130D900F9211242F933F934F935F936F937F93FD
S1130DA08F939F93AF93BF93EF93FF932091300161
S1130DB0309131014091840050918500C901032E86
S1130DC0000CAA0BBB0BDC019927882760E070E0BC
S1130DD0842B952BA62BB72B809332019093330150
S1130DE0A0933401B0933501B09B1BC040918400A3
S1130DF050918500C9010196092E000CAA0BBB0B6A
S1130E00DC019927882760E070E0842B952BA62BC2
S1130E10B72B8093320190933301A0933401B093A4
S1130E203501E091DC01F091DD01309739F065E0A6
S1130E3070E0809144019091450109950E946E04EF
S1130E40FF91EF91BF91AF919F918F917F916F919E
S1130E505F914F913F912F910F900FBE0F901F9074
S1130E6018951F920F920FB60F9211242F933F9350
S1130E704F935F936F937F938F939F93AF93BF939E
S1130E80EF93FF9320913001309131014091840020
S1130E9050918500C901032E000CAA0BBB0BDC0189
S1130EA09927882760E070E0842B952BA62BB72B1D
S1130EB08093320190933301A0933401B0933501B0
S1130EC0B09B1BC04091840050918500C9010196DC
S1130ED0092E000CAA0BBB0BDC019927882760E0C4
S1130EE070E0842B952BA62BB72B80933201909323
S1130EF03301A0933401B0933501E091DE01F09108
S1130F00DF01309739F066E070E0809146019091FE
S1130F10470109950E946E04FF91EF91BF91AF9133
S1130F209F918F917F916F915F914F913F912F91FD
S1130F300F900FBE0F901F9018951F920F920FB62F
S1130F400F9211242F933F934F935F936F937F934B
S1130F508F939F93AF93BF93EF93FF9320913001AF
S1130F60309131014091840050918500C901032ED4
S1130F70000CAA0BBB0BDC019927882760E070E00A
S1130F80842B952BA62BB72B80933201909333019E
S1130F90A0933401B0933501B09B1BC040918400F1
S1130FA050918500C9010196092E000CAA0BBB0BB8
S1130FB0DC019927882760E070E0842B952BA62B11
S1130FC0B72B8093320190933301A0933401B093F3
S1130FD03501E091E001F091E101309739F067E0EB
S1130FE070E0809148019091490109950E946E0436
S1130FF0FF91EF91BF91AF919F918F917F916F91ED
S11310005F914F913F912F910F900FBE0F901F90C2
S113101018951F920F920FB60F9211242F933F939E
S11310204F935F936F937F938F939F93AF93BF93EC
S1131030EF93FF932091300130913101409184006E
S113104050918500C901032E000CAA0BBB0BDC01D7
S11310509927882760E070E0842B952BA62BB72B6B
S11310608093320190933301A0933401B0933501FE
S1131070B09B1BC04091840050918500C90101962A
S1131080092E000CAA0BBB0BDC019927882760E012
S113109070E0842B952BA62BB72B80933201909371
S11310A03301A0933401B0933501E091E201F09152
S11310B0E301309739F068E070E080914A01909143
S11310C04B0109950E946E04FF91EF91BF91AF917E
S11310D09F918F917F916F915F914F913F912F914C
S11310E00F900FBE0F901F9018951F920F920FB67E
S11310F00F9211242F933F934F935F936F937F939A
S11311008F939F93AF93BF93EF93FF9320913001FD
S1131110309131014091840050918500C901032E22
S1131120000CAA0BBB0BDC019927882760E070E058
S1131130842B952BA62BB72B8093320190933301EC
S1131140A0933401B0933501B09B1BC0409184003F
S113115050918500C9010196092E000CAA0BBB0B06
S1131160DC019927882760E070E0842B952BA62B5F
S1131170B72B8093320190933301A0933401B09341
S11311803501E091E401F091E501309739F069E02F
S113119070E080914C0190914D0109950E946E047C
S11311A0FF91EF91BF91AF919F918F917F916F913B
S11311B05F914F913F912F910F900FBE0F901F9011
S11311C018951F920F920FB60F9211242F933F93ED
S11311D04F935F936F937F938F939F93AF93BF933B
S11311E0EF93FF93209130013091310140918400BD
S11311F050918500C901032E000CAA0BBB0BDC0126
S11312009927882760E070E0842B952BA62BB72BB9
S11312108093320190933301A0933401B09335014C
S1131220B09B1BC04091840050918500C901019678
S1131230092E000CAA0BBB0BDC019927882760E060
S113124070E0842B952BA62BB72B809332019093BF
S11312503301A0933401B0933501E091E601F0919C
S1131260E701309739F06AE070E080914E01909187
S11312704F0109950E946E04FF91EF91BF91AF91C8
S11312809F918F917F916F915F914F913F912F919A
S11312900F900FBE0F901F9018951F920F920FB6CC
S11312A00F9211242F933F934F935F936F937F93E8
S11312B08F939F93AF93BF93EF93FF93209130014C
S11312C0309131014091840050918500C901032E71
S11312D0000CAA0BBB0BDC019927882760E070E0A7
S11312E0842B952BA62BB72B80933201909333013B
S11312F0A0933401B0933501B09B1BC0409184008E
S113130050918500C9010196092E000CAA0BBB0B54
S1131310DC019927882760E070E0842B952BA62BAD
S1131320B72B8093320190933301A0933401B0938F
S11313303501E091E801F091E901309739F06BE073
S113134070E0809150019091510109950E946E04C2
S1131350FF91EF91BF91AF919F918F917F916F9189
S11313605F914F913F912F910F900FBE0F901F905F
S113137018951F920F920FB60F9211242F933F933B
S11313804F935F936F937F938F939F93AF93BF9389
S1131390EF93FF932091300130913101409184000B
S11313A050918500C901032E000CAA0BBB0BDC0174
S11313B09927882760E070E0842B952BA62BB72B08
S11313C08093320190933301A0933401B09335019B
S11313D0B09B1BC04091840050918500C9010196C7
S11313E0092E000CAA0BBB0BDC019927882760E0AF
S11313F070E0842B952BA62BB72B8093320190930E
S11314003301A0933401B0933501E091EA01F091E6
S1131410EB01309739F06CE070E0809152019091CB
S1131420530109950E946E04FF91EF91BF91AF9112
S11314309F918F917F916F915F914F913F912F91E8
S11314400F900FBE0F901F9018951F920F920FB61A
S11314500F9211242F933F934F935F936F937F9336
S11314608F939F93AF93BF93EF93FF93209130019A
S1131470309131014091840050918500C901032EBF
S1131480000CAA0BBB0BDC019927882760E070E0F5
S1131490842B952BA62BB72B809332019093330189
S11314A0A0933401B0933501B09B1BC040918400DC
S11314B050918500C9010196092E000CAA0BBB0BA3
S11314C0DC019927882760E070E0842B952BA62BFC
S11314D0B72B8093320190933301A0933401B093DE
S11314E03501E091EC01F091ED01309739F06DE0B8
S11314F070E0809154019091550109950E946E0409
S1131500FF91EF91BF91AF919F918F917F916F91D7
S11315105F914F913F912F910F900FBE0F901F90AD
S113152018951F920F920FB60F9211242F933F9389
S11315304F935F936F937F938F939F93AF93BF93D7
S1131540EF93FF9320913001309131014091840059
S113155050918500C901032E000CAA0BBB0BDC01C2
S11315609927882760E070E0842B952BA62BB72B56
S11315708093320190933301A0933401B0933501E9
S1131580B09B1BC04091840050918500C901019615
S1131590092E000CAA0BBB0BDC019927882760E0FD
S11315A070E0842B952BA62BB72B8093320190935C
S11315B03301A0933401B0933501E091EE01F09131
S11315C0EF01309739F06EE070E080915601909110
S11315D0570109950E946E04FF91EF91BF91AF915D
S11315E09F918F917F916F915F914F913F912F9137
S11315F00F900FBE0F901F9018951F920F920FB669
S11316000F9211242F933F934F935F936F937F9384
S11316108F939F93AF93BF93EF93FF9320913001E8
S1131620309131014091840050918500C901032E0D
S1131630000CAA0BBB0BDC019927882760E070E043
S1131640842B952BA62BB72B8093320190933301D7
S1131650A0933401B0933501B09B1BC0409184002A
S113166050918500C9010196092E000CAA0BBB0BF1
S1131670DC019927882760E070E0842B952BA62B4A
S1131680B72B8093320190933301A0933401B0932C
S11316903501E091F001F091F101309739F06FE0FC
S11316A070E0809158019091590109950E946E044F
S11316B0FF91EF91BF91AF919F918F917F916F9126
S11316C05F914F913F912F910F900FBE0F901F90FC
S11316D018951F920F920FB60F9211242F933F93D8
S11316E04F935F936F937F938F939F93AF93BF9326
S11316F0EF93FF93209130013091310140918400A8
S113170050918500C901032E000CAA0BBB0BDC0110
S11317109927882760E070E0842B952BA62BB72BA4
S11317208093320190933301A0933401B093350137
S1131730B09B1BC04091840050918500C901019663
S1131740092E000CAA0BBB0BDC019927882760E04B
S113175070E0842B952BA62BB72B809332019093AA
S11317603301A0933401B0933501E091F201F0917B
S1131770F301309739F060E170E080915A01909163
S11317805B0109950E946E04FF91EF91BF91AF91A7
S11317909F918F917F916F915F914F913F912F9185
S11317A00F900FBE0F901F9018951F920F920FB6B7
S11317B00F9211242F933F934F935F936F937F93D3
S11317C08F939F93AF93BF93EF93FF932091300137
S11317D0309131014091840050918500C901032E5C
S11317E0000CAA0BBB0BDC019927882760E070E092
S11317F0842B952BA62BB72B809332019093330126
S1131800A0933401B0933501B09B1BC04091840078
S113181050918500C9010196092E000CAA0BBB0B3F
S1131820DC019927882760E070E0842B952BA62B98
S1131830B72B8093320190933301A0933401B0937A
S11318403501E091F401F091F501309739F061E14F
S113185070E080915C0190915D0109950E946E0495
S1131860FF91EF91BF91AF919F918F917F916F9174
S11318705F914F913F912F910F900FBE0F901F904A
S11318801895EF92FF920F931F93CF93DF937B01F1
S1131890EB01A881B981109761F1FC0106811781E0
S11318A02085318516964D915D916D917C911997A6
S11318B0041715072607370714F41BC0DF01ED9141
S11318C0FC911197309749F0468157816085718565
S11318D004171507260737078CF7EC01F983E8830B
S11318E0109721F4F7019183808307C08D939C9313
S11318F004C0EC01B983A883F5CFDF91CF911F9188
S11319000F91FF90EF900895EF92FF920F931F9322
S1131910CF93DF937B01EB01A881B981109761F12B
S1131920FC01028113812481358112964D915D91D0
S11319306D917C911597041715072607370714F442
S11319401BC0DF01ED91FC911197309749F0428162
S113195053816481758104171507260737078CF7AF
S1131960EC01F983E883109721F4F70191838083D4
S113197007C08D939C9304C0EC01B983A883F5CF71
S1131980DF91CF911F910F91FF90EF900895DC01AB
S1131990ED91FC911197309759F48FEF8093EC00FF
S11319A08093ED008093EE0081E083BF8895FDCFA6
S11319B0208131812D933C93CF0108951F920F9282
S11319C00FB60F9211242F933F934F935F936F930E
S11319D07F938F939F93EF93FF9380913001909126
S11319E0310101969093310180933001E0913601E9
S11319F0F0913701309701F14281538164817581FF
S1131A0086179707C9F4CA01209184003091850094
S1131A10421B530B4130510529F48091840090916D
S1131A20850001969093890080938800EFE6F0E0AA
S1131A3080818260808305C0EFE6F0E080818D7F45
S1131A408083FF91EF919F918F917F916F915F912F
S1131A504F913F912F910F900FBE0F901F901895AB
S1131A601F920F920FB60F921124CF92DF92EF9232
S1131A70FF922F933F934F935F936F937F938F9333
S1131A809F93AF93BF93EF93FF93C0903001D09097
S1131A9031012091840030918500B0990FC00D2C44
S1131AA0000CEE08FF08D601992788276901E12C6C
S1131AB0F12CC82AD92AEA2AFB2A15C020918400CD
S1131AC0309185008FEFC81AD80A0D2C000CEE084F
S1131AD0FF08D601992788276901E12CF12CC82A2F
S1131AE0D92AEA2AFB2AE0913601F091370130978E
S1131AF009F442C082819381A481B5818C199D0926
S1131B00AE09BF09181619061A061B06ECF186E37E
S1131B1091E00E94C70C68E371E00E94410CE091DF
S1131B203601F0913701309739F182819381A48194
S1131B30B5818C199D09AE09BF09181619061A0634
S1131B401B062CF721C09C01409184005091850014
S1131B50841B950B019731F420918400309185000A
S1131B602F5F3F4F3093890020938800EFE6F0E029
S1131B7080818260808305C0EFE6F0E080818D7F04
S1131B8080830E946E040CC082819381A481B581FC
S1131B9020913001309131012A173B0769F7D3CFE7
S1131BA0FF91EF91BF91AF919F918F917F916F9131
S1131BB05F914F913F912F91FF90EF90DF90CF90E5
S1131BC00F900FBE0F901F9018953F924F925F9207
S1131BD06F927F928F929F92AF92BF92CF92DF9239
S1131BE0EF92FF920F931F93CF93DF932B013C014E
S1131BF049015A018FB78078382EF8948CE091E02F
S1131C000E94C70CEC011B870A87FD86EC86DF86E1
S1131C10CE86332061F0E0910601F0910701028045
S1131C20F381E02D82819381A481B58108C08091E4
S1131C30320190913301A0913401B0913501480EE5
S1131C40591E6A1E7B1E4A825B826C827D82181436
S1131C5019041A041B0444F00F2E88248A94982C27
S1131C60A82CFFE7BF2EF02D840C951CA61CB71CD6
S1131C708E829F82A886B98680913001909131012D
S1131C804091840050918500B0990EC0092E000C3B
S1131C90AA0BBB0BDC019927882760E070E0842B3A
S1131CA0952BA62BB72B13C020918400309185006F
S1131CB00196092E000CAA0BBB0BDC01992788277F
S1131CC0A90160E070E0842B952BA62BB72B481A52
S1131CD0590A6A0A7B0A1414150416041704ACF58D
S1131CE066E371E0CE010E94840CE0913601F0912C
S1131CF03701309721F182819381A481B5812091AC
S1131D003001309131012A173B07C9F49C014091FD
S1131D10840050918500841B950B019731F4209128
S1131D208400309185002F5F3F4F309389002093CA
S1131D308800EFE6F0E080818260808341C0EFE6B6
S1131D40F0E080818D7F80833BC068E371E0CE0149
S1131D500E94410C3320B9F180910A0190910B014A
S1131D60009781F1E0910801F09109012091380177
S1131D703091390102811381D90116964D915D91FB
S1131D806D917C911997D80116960D911D912D9105
S1131D903C911997401B510B620B730B9AF4DC01B5
S1131DA02D913C91119730930B0120930A01ED93EF
S1131DB0FC9390930901809308010E944E0402C091
S1131DC0332009F07894CE01DF91CF911F910F91C8
S1131DD0FF90EF90DF90CF90BF90AF909F908F9047
S1131DE07F906F905F904F903F900895CF92DF92D5
S1131DF0EF92FF920F931F93CF93DF93EC017B013C
S1131E006A011FB71078F894A881B981109761F11D
S1131E101496ED91FC911597309741F0A081B18112
S1131E201496ED91FC9115973097C1F72091060116
S1131E30309107012A173B0721F0112309F43DC013
S1131E4007C0112309F43CC078948FEF9FEF52C070
S1131E508A819B810097D1F1FC011582148236C0DE
S1131E60789480E090E046C080910601909107014B
S1131E7099838883112329F08A819B81019709F032
S1131E807894B601CE01F7010995F82E092F8FB782
S1131E90F894198218828A819B818230910538F0E6
S1131EA01B821A82FC01158214820E944E041123A3
S1131EB051F078948F2D902F1DC08FEF9FEF1AC093
S1131EC08FEF9FEF17C08F2D902F14C03B832A8371
S1131ED0F901D583C483CD010E944E04E09106012B
S1131EE0F091070182819381892B09F4B9CFF98399
S1131EF0E883C2CFDF91CF911F910F91FF90EF90B4
S1131F00DF90CF900895009106011091070188E3B6
S1131F1091E00E94C70CEC01D80113969C938E9318
S1131F20129778944E855F856C857D858A859B851F
S1131F300E94F60E8FB7F89480910C0190910D01D8
S1131F4099838883D0930D01C0930C01E09108011B
S1131F50F091090100811181E8012A813B81A0915E
S1131F603801B09139011097C1F02115310559F2AA
S1131F7016968D919D910D90BC91A02DE9014E81F5
S1131F805F8168857985841B950BA60BB70B1816A2
S1131F9019061A061B060CF0B6CF1093090100931C
S1131FA0080180910A0190910B0191838083F09341
S1131FB00B01E0930A01A0910801B0910901149664
S1131FC0ED91FC911597309741F0A081B181149661
S1131FD0ED91FC9115973097C1F7CD010E944E0405
S1131FE092CF4231B8F42FB7F89450E0440F551F04
S1131FF0FA01E65CFE4F91838083FA01EE52FE4FB4
S11320007183608341E050E0FC01538342832223C7
S11320100CF4789408958C017B016A018FB7F894CD
S11320200E94E3037894E114F10441F020E030E0ED
S1132030A90160E070E0CB010E94E50D8FB7F89430
S11320400E946E04789481E083BF8895FDCF052EAD
S113205097FB1EF400940E943E1057FD07D00E9487
S1132060461007FC03D04EF40C943E105095409556
S1132070309521953F4F4F4F5F4F08959095809530
S1132080709561957F4F8F4F9F4F0895A1E21A2E4F
S1132090AA1BBB1BFD010DC0AA1FBB1FEE1FFF1F08
S11320A0A217B307E407F50720F0A21BB30BE40B58
S11320B0F50B661F771F881F991F1A9469F760959F
S11320C07095809590959B01AC01BD01CF01089559
S11320D0DC012D923D924D925D926D927D928D9296
S11320E09D92AD92BD92CD92DD92ED92FD920D93B3
S11320F01D93CD93DD93FF91EF918DB78D938EB7A3
S11321008D938FB78D93ED93FD9388279927099429
S1132110DC01CB0181309105811D2D903D904D90C6
S11321205D906D907D908D909D90AD90BD90CD9083
S1132130DD90ED90FD900D911D91CD91DD91ED918E
S1132140FD910D90F894FEBF0FBEEDBFED91FD9192
S10921500994F894FFCF8E
S1132156000000002201F601F6015E01130251158A
S11321661001111E111B500B411B411F1101511F60
S1052176510B07
S9030000FC
