:100000000C942E000C9443000C9443000C94430079
:100010000C9443000C9443000C9443000C94430054
:100020000C9443000C9443000C9443000C94430044
:100030000C9443000C9443000C9443000C94430034
:100040000C9443000C9443000C9443000C94430024
:100050000C9443000C9443000C94430011241FBEE5
:10006000CFEFD4E0DEBFCDBF11E0A0E0B1E0EEEA1B
:10007000F5E002C005900D92A431B107D9F70E94B6
:1000800087020C94D5020C94000080EC8093E4006D
:1000900087EB8093E5008FE08093E70087E0809313
:1000A000E60008951F93CF93DF93CDB7DEB7649733
:1000B0000FB6F894DEBF0FBECDBF94E1E0E0F1E0F3
:1000C000DE01119601900D929A95E1F76630710567
:1000D00008F004C160FF02C0AFE001C0A0EF282F0C
:1000E00030E0A901405351094A30510510F49A01FA
:1000F00003C08A3008F0F2C0CB0181709078992358
:1001000024F401978E6F9F6F0196AC01019709F05F
:10011000C8C061507109C5C0CA01880F991F880FF6
:10012000991F4CEE50E0FA019081E12FF0E0082E8B
:1001300002C0EE0FFF1F0A94E2F79A239E0FFA0106
:100140009083E1EFF0E090816B2F70E0082E02C009
:10015000660F771F0A94E2F79A23690F6083E6EF30
:10016000F0E09081432F50E0082E02C0440F551F4D
:100170000A94E2F79A23490F4083EBEFF0E04081C5
:1001800030E0B90102C0660F771F8A95E2F7CB0114
:10019000A4238A0F8083A2C06230710509F03FC09A
:1001A000CA01880F991F880F991F4DEE50E0FA0180
:1001B0009081E12FF0E0082E02C0EE0FFF1F0A949D
:1001C000E2F79A239E0FFA019083E2EFF0E090812C
:1001D0006B2F70E0082E02C0660F771F0A94E2F7BB
:1001E0009A23690F6083E7EFF0E09081432F50E09E
:1001F000082E02C0440F551F0A94E2F73A2F392304
:10020000430F4083ECEFF0E0908130E002C0220F1A
:10021000331F8A95E2F7A9232A0F20835FC0643039
:10022000710509F05BC0CA01880F991F880F991FDB
:100230004EEE50E0FA019081E12FF0E0082E02C06E
:10024000EE0FFF1F0A94E2F79A239E0FFA019083A4
:10025000E3EFF0E090816B2F70E0082E02C0660F94
:10026000771F0A94E2F79A23690F6083E8EFF0E0C2
:100270009081432F50E0082E02C0440F551F0A946E
:10028000E2F79A23490F4083EDEFF0E0908130E0F0
:1002900002C0220F331F8A95E2F7A9232A0F208379
:1002A0001DC0220F331FFE01E20FF31F81819281D7
:1002B000182F1F709C01329522952F7023273F70B5
:1002C0002327B22FBF70392F3F70292F22952F700F
:1002D0002F706115710509F41FCF5ECF64960FB6BC
:1002E000F894DEBF0FBECDBFDF91CF911F9108956F
:1002F0008F929F92AF92BF92EF92FF920F931F93B4
:10030000CF93DF931616170618061906FCF4C5E0FE
:10031000D0E00F2EFAE08F2E912CA12CB12CF02DD5
:10032000A50194010E949402E22EF32E042F152FB2
:10033000862FBE010E94520021976E2D7F2D802FA7
:10034000912F161617061806190654F3DF91CF9150
:100350001F910F91FF90EF90BF90AF909F908F9063
:100360000895CF92DF92EF92FF92CF93DF936B01CC
:100370007C0183E0C816D104E104F1047CF1D701CB
:10038000C60181709927AA27B078BB2354F401973E
:10039000A109B1098E6F9F6FAF6FBF6F0196A11D4D
:1003A000B11D892B8A2B8B2BE1F0C2E0D0E008C075
:1003B000C701B6010E949402672B682B692BA1F03C
:1003C00021969E010D2E000C440B550B2C153D055E
:1003D0004E055F056CF381E090E008C081E090E09D
:1003E00005C080E090E002C080E090E0DF91CF9116
:1003F000FF90EF90DF90CF9008954B015C0184E077
:100400008093810080E885B981E08093EF00E12C42
:10041000F12C612C712C00E010E0C2E1DAE7212C14
:10042000312C0F2EF4E8CF2ED12CF02D0F2EF9EF1A
:100430004F2E512CF02DC501B4010E94B101892B22
:1004400021F0C501B4010E9478012FEF821A920AAF
:10045000A20AB20AE114F10431F51F9911C0611426
:10046000710471F421E0EEEFF0E02083EFEEF0E0B4
:100470001082EE24E394F12C66246394712C17C04F
:100480001F9911C0F1E06F16710469F421E0EFEEDD
:10049000F0E02083EEEFF0E01082EE24E394F12C04
:1004A000622C732C04C01F9B02C0E22CF32CF601BB
:1004B000808191818C179D0700F101151105E9F4E8
:1004C000CE01A0E0B0E08E5E9548AF4FBF4F0097E1
:1004D000A140B1051CF0CD5ED54802C0CE5ED54826
:1004E000F2018081882321F0108201E010E005C034
:1004F00021E0F201208301E010E0F601808191818A
:100500008C179D0708F097CF022D132D94CFE1E6AD
:10051000F0E080E8808310820E94450068EA71E67E
:1005200080E090E00E94FD01052E97FB1EF40094F0
:100530000E94AB0257FD07D00E94B30207FC03D014
:100540004EF40C94AB0250954095309521953F4F59
:100550004F4F5F4F089590958095709561957F4FAF
:100560008F4F9F4F0895A1E21A2EAA1BBB1BFD01BE
:100570000DC0AA1FBB1FEE1FFF1FA217B307E40782
:10058000F50720F0A21BB30BE40BF50B661F771FDA
:10059000881F991F1A9469F76095709580959095BA
:0E05A0009B01AC01BD01CF010895F894FFCF7F
:1005AE0051151001111E111B500B411B411F110142
:0405BE00511F510B6D
:00000001FF
